:020000040800F2
:100000003804002019200008A5110008A7110008D5
:10001000AB110008AF110008B31100080000000088
:10002000000000000000000000000000B711000800
:10003000B911000800000000BB110008BD11000844
:100040003320000833200008332000083320000844
:100050003320000833200008332000083320000834
:100060003320000833200008332000083320000824
:100070003320000833200008332000083320000814
:100080003320000833200008332000083320000804
:1000900033200008332000083320000833200008F4
:1000A00033200008332000083320000833200008E4
:1000B00033200008332000083320000833200008D4
:1000C00033200008332000083320000833200008C4
:1000D00033200008332000083320000833200008B4
:1000E000332000083320000833200008DFF80CD04C
:1000F00002F0C8FA00480047010100083804002057
:1001000001F0CCF800F0C2F800F058F84FF4E131FB
:10011000134800F0CCF94FF4E131124800F0C7F970
:100120004FF4E131104800F0C2F900F054FB00F048
:10013000D5FC0EA002F00AFB16A002F007FB0BA0F4
:1001400002F004FB0BE002F00EF800F0B3F86420BC
:1001500000F06EF800F0B5F8642000F069F8F2E7FE
:100160000038014000440040004800402A2A2A2A62
:100170002A2A2A2A2A2A2A2A2A2A2A2A2A2A2A2ADF
:100180002A2A2A2A2A2A2A2A2A2A2A2A2A2A2A2ACF
:100190000A0000002A202020202020202020205398
:1001A0006D61727420486F7573652049696E69745A
:1001B000202020202020202A0A00000000B585B041
:1001C000684601F002FC6FF0040001F037F90020EE
:1001D00001F0F3FE29490198B0FBF1F028490870BD
:1001E0004FF4FA510198B0FBF1F02649088005B0B0
:1001F00000BD10B504462249097801FB04F001F066
:10020000BDFE002001F0BEFE012001F0BBFE00BFDC
:10021000102001F0E9FE1C4908700846007801280A
:10022000F6D1C01E01F0AEFE002001F0ABFE10BD05
:1002300070B504461348008800FB04F5B5F1807FD3
:1002400001D36FF07F45284601F098FE002001F0B1
:1002500099FE012001F096FE00BF102001F0C4FEBF
:1002600009490870084600780128F6D1C01E01F03F
:1002700089FE002001F086FE70BD000000127A00A9
:1002800000000020020000200400002008B5012129
:10029000082001F007FC4FF48050ADF8000010205A
:1002A0008DF8030003208DF802006946084801F02C
:1002B00043F908BD10B54FF48051054801F0E7F946
:1002C00010BD10B54FF48051014801F0E2F910BDA6
:1002D000000C014010B586B004460121042001F055
:1002E000E1FB0121880301F0DDFB18208DF81700E8
:1002F0004FF40070ADF8140003208DF8160005A926
:100300008F4801F019F904208DF817000002ADF8AC
:10031000140003208DF8160005A9894801F00CF996
:1003200001940020ADF810000C20ADF80E00002064
:10033000ADF80C00ADF80A00ADF8080001A981483D
:1003400001F05BFC01217F4801F0E3FC012240F257
:1003500025517C4801F0E9FC25208DF800000120A2
:100360008DF803008DF801008DF80200684601F059
:100370001AF806B010BD10B586B00446012105205C
:1003800001F090FB0121704801F099FB0820ADF8C5
:10039000140048208DF8170005A9694801F0CCF831
:1003A0000420ADF8140003208DF8160018208DF8F5
:1003B000170005A9624801F0BFF826208DF810004B
:1003C00002208DF811008DF8120001208DF8130025
:1003D00004A800F0E8FF00940020ADF80400ADF898
:1003E0000600ADF80800ADF80C000C20ADF80A00CE
:1003F0006946564801F001FC012240F2255153485C
:1004000001F093FC0121514801F083FC06B010BDBE
:1004100010B586B004460121082001F043FB0121FC
:10042000880401F04CFB4FF40060ADF81400482044
:100430008DF8170005A9464801F07EF84FF480605A
:10044000ADF8140003208DF8160018208DF8170061
:1004500005A93F4801F070F827208DF8100003200F
:100460008DF811008DF8120001208DF8130004A8FA
:1004700000F099FF00940020ADF80400ADF80600EC
:10048000ADF80800ADF80C000C20ADF80A00694684
:10049000304801F0B2FB012240F225512D4801F015
:1004A00044FC01212B4801F034FC06B010BD70B5AE
:1004B00004460D462348844203D12846FFF70AFF2D
:1004C00009E02248844203D12846FFF754FF02E0A6
:1004D0002846FFF79DFF70BD70B506460D462C46B9
:1004E00012E000BF8021304601F0EEFC0028F9D078
:1004F0002178304601F07AFC00BF4021304601F0FF
:10050000E3FC0028F9D1641C20780028E9D170BDF3
:1005100070B504460E460F4D00BF8021284601F0FD
:10052000D3FC0028F9D0E1B2284601F05FFC00BFFF
:100530004021284601F0C8FC0028F9D0204670BDB3
:100540000008014000380140010002000044004062
:10055000000C01400048004008B50121042001F0D2
:10056000A1FA2020ADF8000003208DF80200102031
:100570008DF803006946484800F0DEFF01210420A1
:1005800001F090FA8020ADF8000003208DF8020001
:1005900010208DF8030069463F4800F0CDFF01218F
:1005A000042001F07FFA4020ADF8000010208DF803
:1005B00003006946384800F0BFFF08BD10B5044687
:1005C00014B9FFF7C9FF04E0012C02D133A002F0F7
:1005D000BDF810BD70B50446002517E014F0800F7B
:1005E00004D080212C4801F052F803E080212A48F1
:1005F00001F04FF82021284801F04BF8202126482F
:1006000001F045F86006040E681CC5B2082DE5DB54
:1006100070BD70B504460D461CB92846FFF7DAFFD9
:1006200004E0012C02D024A002F090F870BD70B557
:1006300000251CE06006040E2021174801F029F86F
:100640000220FFF7D6FD4021134801F006F80128EB
:1006500001D144F001040220FFF7CBFD20210E4818
:1006600001F015F80220FFF7C4FD681CC5B2082D83
:10067000E0DB204670BD70B504461CB9FFF7D7FF1C
:10068000054606E0012C04D013A002F05FF800201C
:1006900070BD2846FCE70000000801404572726FFB
:1006A0007221204E65656420656E61626C65205321
:1006B0005049312E0A0000004572726F7221204E9F
:1006C0006F74207375706F72742053504920706F6F
:1006D00072742E0A000000004572726F7221204E63
:1006E0006F7420737570706F72742053504920704E
:1006F0006F72742E0A00000008B50121082001F075
:10070000D1F92020ADF8000003208DF80200102060
:100710008DF803006946F74800F00EFF08BD08B5E4
:100720000121082001F0BEF94020ADF800000320AF
:100730008DF8020010208DF803006946ED4800F0A6
:10074000FBFE08BD08B50121082001F0ABF98020AF
:10075000ADF8000003208DF8020010208DF8030092
:100760006946E44800F0E8FE08BD10B504464021A3
:10077000E14800F08EFF4021DE4800F08AFF21466C
:100780000020FFF746FF4021DB4800F080FF10BD4E
:1007900010B504464021D84800F07BFF4021D548E1
:1007A00000F075FF21460020FFF733FF4021D248BB
:1007B00000F06DFF10BD10B52021CE4800F069FF9C
:1007C0006420FFF735FD2021CA4800F060FF322089
:1007D000FFF72EFD10BD10B50020FFF7EFFEFFF76D
:1007E0008BFFFFF79CFFFFF7ADFFFFF7E4FF112042
:1007F000FFF7BBFF7820FFF71BFDB120FFF7B5FF28
:100800000120FFF7C5FF2C20FFF7C2FF2D20FFF7C7
:10081000BFFFB220FFF7A9FF0120FFF7B9FF2C208F
:10082000FFF7B6FF2D20FFF7B3FFB320FFF79DFFC3
:100830000120FFF7ADFF2C20FFF7AAFF2D20FFF7C7
:10084000A7FF0120FFF7A4FF2C20FFF7A1FF2D2019
:10085000FFF79EFFB420FFF788FF0720FFF798FF00
:10086000C020FFF782FFA220FFF792FF0220FFF7D0
:100870008FFF8420FFF78CFFC120FFF776FFC52094
:10088000FFF786FFC220FFF770FF0A20FFF780FF07
:100890000020FFF77DFFC320FFF767FF8A20FFF7E7
:1008A00077FF2A20FFF774FFC420FFF75EFF8A203E
:1008B000FFF76EFFEE20FFF76BFFC520FFF755FF38
:1008C0000E20FFF765FF3620FFF74FFFC020FFF730
:1008D0005FFFE020FFF749FF0F20FFF759FF1A20C5
:1008E000FFF756FF0F20FFF753FF1820FFF750FFC9
:1008F0002F20FFF74DFF2820FFF74AFF2020FFF7AA
:1009000047FF2220FFF744FF1F20FFF741FF1B2076
:10091000FFF73EFF2320FFF73BFF3720FFF738FFAD
:100920000020FFF735FF0720FFF732FF0220FFF717
:100930002FFF1020FFF72CFFE120FFF716FF0F20FD
:10094000FFF726FF1B20FFF723FF0F20FFF720FFF5
:100950001720FFF71DFF3320FFF71AFF2C20FFF7AA
:1009600017FF2920FFF714FF2E20FFF711FF30207B
:10097000FFF70EFF3020FFF70BFF3920FFF708FFCE
:100980003F20FFF705FF0020FFF702FF0720FFF7DA
:10099000FFFE0320FFF7FCFE1020FFF7F9FE2A20E0
:1009A000FFF7E3FE0020FFF7F3FE0020FFF7F0FE65
:1009B0000020FFF7EDFE7F20FFF7EAFE2B20FFF778
:1009C000D4FE0020FFF7E4FE0020FFF7E1FE002048
:1009D000FFF7DEFE9F20FFF7DBFEF020FFF7C5FEEE
:1009E0000120FFF7D5FEF620FFF7BFFE0020FFF73E
:1009F000CFFE3A20FFF7B9FE0520FFF7C9FE2920F8
:100A0000FFF7B3FE10BD10B5044640213A4800F090
:100A100040FE4021374800F03AFE21120020FFF747
:100A2000F8FDE1B20020FFF7F4FD4021324800F06C
:100A30002EFE10BD2DE9F04105460C4616461F4618
:100A40002A20FFF792FE0020FFF7A2FEE8B2FFF790
:100A50009FFE0020FFF79CFEB11CC8B2FFF798FE76
:100A60002B20FFF782FE0020FFF792FEE0B2FFF797
:100A70008FFE0020FFF78CFE791CC8B2FFF788FEBE
:100A80002C20FFF772FEBDE8F08170B506469F236B
:100A90007F2200210846FFF7CDFF2C20FFF765FEDF
:100AA000002408E0002503E03046FFF7ACFF6D1C92
:100AB000A02DF9D3641C802CF4D370BD70B504460E
:100AC0000D461646681C83B2601C82B22946204639
:100AD000FFF7B0FF3046FFF796FF70BD10B58021DD
:100AE000044800F0D4FD10BD10B58021014800F08D
:100AF000D0FD10BD000C01400008014070B5044657
:100B00000D462B46224629462046FFF793FFF0B2BA
:100B1000FFF73EFE304670BD2DE9F04706460F4612
:100B200090469A46002445464FEA4800C0F1030922
:100B30004AE07A1991B2321990B25246FFF7BEFFDD
:100B40007A1991B2321B90B25246FFF7B7FF7A1B67
:100B500091B2321990B25246FFF7B0FF7A1B91B2B0
:100B6000321B90B25246FFF7A9FF3A1991B272199F
:100B700090B25246FFF7A2FF3A1991B2721B90B29F
:100B80005246FFF79BFF3A1B91B2721990B2524640
:100B9000FFF794FF3A1B91B2721B90B25246FFF7D7
:100BA0008DFFB9F1000F05DA042000FB049000F17D
:100BB000060907E0601B042101FB009000F10A090F
:100BC000681E85B2601C84B2AC42B2DBAC4237D145
:100BD0007A1991B2321990B25246FFF76FFF7A1923
:100BE00091B2321990B25246FFF768FF7A1B91B268
:100BF000321990B25246FFF761FF7A1B91B2321B55
:100C000090B25246FFF75AFF3A1991B2721990B258
:100C10005246FFF753FF3A1991B2721B90B25246F7
:100C2000FFF74CFF3A1B91B2721990B25246FFF790
:100C300045FF3A1B91B2721B90B25246FFF73EFF3E
:100C4000BDE8F0872DE9FF4F83B0804689460598BF
:100C5000A0EB08050698A0EB0906002D02DB012099
:100C6000029003E04FF0FF3002906D42002E02DB55
:100C70000120019003E04FF0FF30019076424FEAEF
:100C8000450A4FEA460BB54219DDABEB05040027D8
:100C900012E049464046109AFFF710FF002C05DB92
:100CA000A4EB0A04019848441FFA80F95C440298B6
:100CB00040441FFA80F87F1CAF42EADD18E0AAEB3F
:100CC0000604002712E049464046109AFFF7F6FE58
:100CD000002C05DBA4EB0B04029840441FFA80F8BB
:100CE0005444019848441FFA80F97F1CB742EADD5A
:100CF00007B0BDE8F08FF8B504460D4617461E460E
:100D000044F208202B463A46294600902046FFF739
:100D100099FF48F210406A1C93B291B2621C009095
:100D200090B23A46FFF78EFF44F20820334622463F
:100D3000294600902046FFF785FF48F21040631CCB
:100D40009AB26B1C99B2631C009098B23346FFF7BD
:100D500079FF4FF6FF7033463A4631460090204601
:100D6000FFF770FF4FF6FF7033463A462946009072
:100D70002046FFF767FFF8BDF8B506460F46144654
:100D80001D464FF6FF703B462246394600903046DE
:100D9000FFF758FF4FF6FF702B463246394600905A
:100DA0003046FFF74FFF48F210406A1E93B291B2EF
:100DB000721C009090B22246FFF744FF44F20820D4
:100DC0002B462246294600903046FFF73BFF48F26B
:100DD0001040631E9AB27B1C99B2631E009098B2B9
:100DE0002B46FFF72FFF44F208202B4622463946B8
:100DF00000902046FFF726FFF8BD2DE9F84F074683
:100E0000884693469A46DDF828900097B3E099F813
:100E1000000080283DDA99F800600D2E05D1009F72
:100E200008F110001FFA80F830E0202E03DDA6F153
:100E3000200086B200E00026002422E000251CE00D
:100E400004EB0610D349085C80212941084208D0F0
:100E500008EB040291B27A1990B25A46FFF72EFEBF
:100E600009E0D34507D008EB040291B27A1990B299
:100E70005246FFF723FE681CC5B2082DE0DB601C5C
:100E8000C4B2102CDADB07F1080087B209F10109BE
:100E900071E0002668E006EB0610BF4911F810006B
:100EA00099F8001088425DD106EB0610BA4901EBB3
:100EB0004000407899F80110884253D100244FE057
:100EC000002520E006EB0610B34901EB4000801C32
:100ED00010F8141080202841014208D008EB0402C9
:100EE00091B27A1990B25A46FFF7E8FD09E0D3456E
:100EF00007D008EB040291B27A1990B25246FFF77C
:100F0000DDFD681CC5B2082DDCDB002524E006EB06
:100F10000610A14901EB4000801C012101EB4401B6
:100F2000405C80212941084209D008EB040291B2BB
:100F30007A19083290B25A46FFF7C0FD0AE0D3454D
:100F400008D008EB040291B27A19083290B25246E6
:100F5000FFF7B4FD681CC5B2082DD8DB601CC4B215
:100F6000102CADDB701C86B2322E94DB09F1020925
:100F700007F1100087B299F8000000287FF447AF0E
:100F8000BDE8F88F2DE9F05F0746884692469946FE
:100F9000002531E000242BE080490A9801EBC010C5
:100FA00000EB850010F804B000261DE080203041E1
:100FB00010EA0B0F0AD008EB050291B207EBC4024E
:100FC000324490B25246FFF779FD0BE0CA4509D092
:100FD00008EB050291B207EBC402324490B24A46D4
:100FE000FFF76CFD701CC6B2082EDFDB601CC4B2BC
:100FF000042CD1DB681CC5B2202DCBDBBDE8F09FF3
:101000007EB503460A46002100BF01240BE00A25F5
:10101000B3FBF5F605FB163530350DF801500A2502
:10102000B3FBF5F3491C0A25B3FBF5F5002DEED112
:1010300003F13005EDB20DF801507CB92D25157086
:10104000084605E01DF800600D1A6D1C5655401E3F
:101050000028F7DA00268D1C56550BE0084604E000
:101060001DF800500E1A9555401E0028F8DA00268B
:101070004D1C56557EBD2DE9FF4F8DB081468A46E9
:10108000DDF868B000255E4604E0681CC5B20A20A1
:10109000B6FBF0F6002EF8D1002452E0291B481EC2
:1010A00001F0FEF902460B46CDE9040100203C495F
:1010B00001F0EEFBCDE90601584601F002FA0746C1
:1010C000DDE9062301F07DF9CDE9080101F006FA1A
:1010D00006460AA93046FFF793FF0AA81FFA8AF1CD
:1010E00009EBC402009090B2DDE90F23FFF785FE03
:1010F000291B481E01F0D4F902460B46CDE9000138
:101100000020274901F0C4FB07468846304601F01D
:10111000D8F93A464346CDE9020101F0E0F8CDE9BD
:101120000601584601F0CDF9CDE90401DDE90623B9
:1011300001F0CFF8CDE9080101F0D0F98346601C39
:10114000C4B2AC42AADB11B0BDE8F08F2DE9F04784
:1011500005460E4617464FF6FF70FFF796FC701EC9
:1011600083B2681E82B200210220FFF763FC0024D4
:101170000AE017F8149007EB440090F8018049EA60
:101180000820FFF740FC641C05FB06F0A042F0DCE1
:10119000BDE8F087BC3200082E400008AD380008DA
:1011A00000002440704700BFFEE700BFFEE700BF1D
:1011B000FEE700BFFEE770477047704770470000CA
:1011C0000CB50020019000906B48006840F480301E
:1011D0006949086000BF6848006800F4003000906A
:1011E0000198401C0190009818B90198B0F5A06FC3
:1011F000F1D16148006810F4003F02D00120009056
:1012000001E0002000900098012842D15B4800686E
:1012100040F01000594908600846006820F00300BB
:1012200008600846006840F00200086052484068C4
:10123000514948600846406848600846406840F4A4
:10124000806048600846406820F47C10486008468A
:10125000406840F4E81048600846006840F080703C
:10126000086000BF4448006810F0007FFAD0424890
:10127000406820F00300404948600846406840F05C
:101280000200486000BF3C48406800F00C0008289D
:10129000F9D10CBD10B5FFF793FF10BD10B536485E
:1012A000006840F00100344908600846406834494D
:1012B00008403149486008460068324908402E49D4
:1012C00008600846006820F48020086008464068EE
:1012D00020F4FE0048604FF41F008860FFF7DAFF3B
:1012E0004FF000602849086010BD10B500210020B3
:1012F0000022214B5B6803F00C0121B1042906D0C8
:10130000082928D107E0214B214C236027E01F4BFF
:101310001F4C236023E0184B5B6803F47010164BDE
:101320005B6803F48032022303EB904022B9194B2F
:101330004343174C23600DE00F4B5B6813F4003FF1
:1013400004D0144B4343124C236003E00F4B434340
:101350000F4C236003E00D4B0D4C236000BF00BF1A
:10136000054B5B68C3F303130B4CE15C084B1B6834
:10137000CB40074C236010BD00100240002002400B
:101380000000FFF8FFFFF6FE08ED00E000127A0013
:101390000800002000093D000C00002031490143F5
:1013A000314A1160704770B5002100230F22C478C4
:1013B0000CB32D4C246804F4E064C4F5E064210A05
:1013C000C1F10403CA40447804FA03F1847814405C
:1013D00021430901254C0678A155047804F01F0526
:1013E0000124AC4005786D114FF0E02606EB850531
:1013F000C5F8004109E0047804F01F050124AC4061
:101400001B4D0678761145F8264070BD194A0A40F2
:101410000243154B1B1F1A60704739B1124A121D47
:1014200012680243104B1B1D1A6006E00E4A121D83
:10143000126882430C4B1B1D1A607047042808D1A8
:101440004FF0E021096941F004014FF0E022116101
:1014500007E04FF0E021096921F004014FF0E0229C
:10146000116170470000FA050CED00E000E400E0B7
:1014700080E100E080FFFF1F10B50446CA488442A7
:1014800008D10121042000F027FB0021042000F0F6
:1014900023FB46E0C548844208D10121082000F022
:1014A0001BFB0021082000F017FB3AE0C0488442F3
:1014B00008D10121102000F00FFB0021102000F0C6
:1014C0000BFB2EE0BB48844208D10121202000F014
:1014D00003FB0021202000F0FFFA22E0B6488442FE
:1014E00008D10121402000F0F7FA0021402000F04F
:1014F000F3FA16E0B148844208D10121802000F0BF
:10150000EBFA0021802000F0E7FA0AE0AC488442C0
:1015100007D10121801500F0DFFA0021A01500F0AD
:10152000DBFA10BD10B50121084600F0D5FA002104
:10153000012000F0D1FA10BD2DE9F041024600254E
:101540000026002000230024002791F803C00CF09F
:101550000F0591F803C01CF0100F03D091F802C0E2
:101560004CEA050591F800C0BCF1000F31D01468B9
:1015700000202BE04FF0010C0CFA00F3B1F800C092
:101580000CEA03069E4220D183004FF00F0C0CFAA8
:1015900003F7BC4305FA03FC4CEA040491F803C0CA
:1015A000BCF1280F06D14FF0010C0CFA00FCC2F878
:1015B00014C00AE091F803C0BCF1480F05D14FF008
:1015C000010C0CFA00FCC2F810C0401C0828D1D352
:1015D0001460B1F800C0BCF1FF0F34DD5468002086
:1015E0002EE000F1080C4FF0010808FA0CF3B1F8F6
:1015F00000C00CEA03069E4221D183004FF00F0C7D
:101600000CFA03F7BC4305FA03FC4CEA040491F816
:1016100003C0BCF1280F05D100F1080C08FA0CF842
:10162000C2F8148091F803C0BCF1480F07D100F153
:10163000080C4FF0010808FA0CF8C2F81080401CA2
:101640000828CED35460BDE8F0814FF6FF710180C9
:10165000022181700421C170704702460020936806
:101660000B4201D0012000E000207047014688684D
:1016700080B2704702460020D3680B4201D001209F
:1016800000E0002070470146C86880B270470161E1
:101690007047416170470AB1016100E041617047E4
:1016A000C16070474FF480320A4382618161826178
:1016B00082698269704702460020424B18684FF6E3
:1016C0008073184040EA021008433E4B1860704790
:1016D0003D49C8617047F0B50A4600230024002147
:1016E000002500F00046B6F1004F02D1354EF169F9
:1016F00001E0344E7168C0F3034583B200F4401634
:10170000B6F5401F08D121F070612E4E766826F0A4
:1017100070662C4F7E6012E000F48016B6F5801FD4
:1017200006D1032606FA05F4A14341F0706106E0F4
:10173000460D360103FA06F6B14341F0706122B15D
:10174000460D360103FA06F6314300F00046B6F1C5
:10175000004F02D11B4EF16101E01A4E7160F0BDE5
:1017600030B500228B071C0F0F2303FA04F2154B30
:1017700008338C1053F824309343124C08348D10E6
:1017800044F8253023468C1053F824308C07240F5E
:1017900000FA04F423430B4C08348D1044F8253030
:1017A00030BD0A490860704700080140000C014044
:1017B000001001400014014000180140001C0140CD
:1017C000002001400000014000002042DC002042D7
:1017D000DD48006840F00100DB49086008464068C9
:1017E000DA490840D849486008460068D8490840A6
:1017F000D54908600846006820F480200860084643
:10180000406820F4FE0048604FF41F008860704775
:10181000CD49096821F48031CB4A1160114609682D
:1018200021F480211160B0F5803F03D0B0F5802F06
:101830000ED106E0C449096841F48031C24A116002
:1018400007E0C149096841F4A021BF4A116000E0E6
:1018500000BF00BF704710B50146002200230020E2
:101860004A11012A02D1B84C236806E0022A02D1AB
:10187000B54C236A01E0B44C636A01F01F020124F5
:1018800094401C4201D0012000E0002010BD38B57A
:10189000002000900024002500BF3120FFF7DBFF6F
:1018A00005460098401C00900098B0F5A06F01D04C
:1018B000002DF2D03120FFF7CEFF08B1012400E067
:1018C0000024204638BD014600209F4A106820F0C1
:1018D000F80040EAC100106070479E4908607047F8
:1018E00002460020984B586820F47C1042EA01031D
:1018F0001843954B586070479649086670470146F3
:101900000020914A506820F003000843506070475F
:101910008D48406800F00C007047014600208A4A5C
:10192000506820F0F00008435060704701460020E6
:10193000854A506820F4E0600843506070470146D3
:101940000020814A506820F4605040EAC100506095
:10195000704729B17C4A527A02437B4B5A7204E0A9
:10196000794A527A8243784B5A7270477A490860B2
:10197000704701460020744A506820F440400843F4
:10198000506070470021754A11706F4A82F820102C
:10199000012802D0042808D103E001216F4A117008
:1019A00004E005216D4A117000E000BF00BF7047E0
:1019B0006B49086070476449096A0143624A1162D1
:1019C0007047674944390860704730B500210022EC
:1019D000002400235C4D6D6805F00C0121B1042941
:1019E00005D0082923D105E05E4D056022E05D4D5C
:1019F00005601FE0544D6D6805F47012524D6D681E
:101A000005F48034022505EB92421CB9564D55432E
:101A100005600BE04C4D6D6815F4003F03D0524D4E
:101A20005543056002E04F4D5543056002E04D4DC2
:101A3000056000BF00BF444D6D6805F0F001090965
:101A40004A4D6B5C0568DD4045603F4D6D6805F4AF
:101A5000E061090A454D6B5C4568DD4085603A4DA3
:101A60006D6805F46051C90A404D6B5C4568DD4006
:101A7000C560354D6D6805F44041890B3C4D6B5C8C
:101A8000C568B5FBF3F5056130BD29B12E4A526931
:101A900002432D4B5A6104E02B4A526982432A4B80
:101AA0005A61704729B1284A92690243264B9A61CC
:101AB00004E0254A92698243234B9A61704729B119
:101AC000214AD2690243204BDA6104E01E4AD269FE
:101AD00082431D4BDA61704729B11B4AD268024329
:101AE000194BDA6004E0184AD2688243164BDA6078
:101AF000704729B1144A12690243134B1A6104E07A
:101B0000114A12698243104B1A61704714494039D7
:101B1000086070470F49C86470470B49C871704727
:101B20000948406A40F080700749486270470146A2
:101B30000020054A92680A4201D0012000E00020FE
:101B40007047014988727047001002400000FFF89A
:101B5000FFFFF6FE00004242D80042422010024041
:101B60008004424200127A0000093D001C0000205F
:101B70002C00002010B50446FB48844209D1012105
:101B80008803FFF7A9FF00214FF48040FFF7A4FF6F
:101B900032E0F648844209D101214804FFF7A9FF49
:101BA00000214FF40030FFF7A4FF25E0F048844205
:101BB00009D101218804FFF79CFF00214FF4802008
:101BC000FFF797FF18E0EB48844209D10121C804D0
:101BD000FFF78FFF00214FF40020FFF78AFF0BE093
:101BE000E548844208D101210805FFF782FF002162
:101BF0004FF48010FFF77DFF10BD2DE9F04786B050
:101C000005460E460024A24600BFA1460027B08923
:101C100000B100BF2F462C8A4CF6FF700440F088BC
:101C200004432C82AC894EF6F3100440B08831890D
:101C30000843718908430443AC81AC8A4FF6FF40E6
:101C40000440B0890443AC8201A8FFF7BEFEC64839
:101C5000874202D1DDF810A001E0DDF80CA0A889D0
:101C600010F4004F08D00AEBCA0000EB0A103168EC
:101C70004900B0FBF1F807E00AEBCA0000EB0A10DC
:101C800031688900B0FBF1F86420B8FBF0F0040182
:101C90002009642101FB1089A88910F4004F08D0A5
:101CA000322000EBC900B0FBF1F000F00700044364
:101CB00008E0322000EB09106421B0FBF1F000F0E5
:101CC0000F0004432C8106B0BDE8F0874FF4165195
:101CD000016000218180C18001810C2141810021AE
:101CE0008181704710B502460020108A4FF2FF0331
:101CF00018400B884C8823438C882343CC8823438B
:101D00001843108210BD0021018041808180C18074
:101D1000704721B1828942F40052828104E08289B5
:101D20004DF6FF731A4082817047F0B503460024D8
:101D3000002600250020A1F510676A3F00D100BFF2
:101D40001846C1F3421401F01F06012707FA06F5F1
:101D5000012C01D10C3004E0022C01D1103000E044
:101D600014301AB107682F43076002E00768AF43D9
:101D70000760F0BD1AB1838A0B43838202E0838A35
:101D80008B4383827047028A4FF6F0731A400282B7
:101D9000028A0A430282704782894FF2FF731A4017
:101DA000828182890A438281704721B1828942F00F
:101DB0000202828104E082894FF6FD731A4082811B
:101DC0007047028A4FF6DF731A400282028A0A4382
:101DD0000282704721B1028A42F48042028204E00A
:101DE000028A4BF6FF731A4002827047C1F3080261
:101DF0008280704701468888C0F308007047818957
:101E000041F0010181817047028BD2B20283028BC3
:101E100042EA012202837047028B02F47F4202836E
:101E2000028B0A430283704721B1828A42F020026A
:101E3000828204E0828A4FF6DF731A408282704702
:101E400021B1828A42F01002828204E0828A4FF637
:101E5000EF731A408282704721B1828A42F00802F1
:101E6000828204E0828A4FF6F7731A4082827047BA
:101E700021B1828942F40042828103E08289C2F367
:101E80000E028281704721B1828A42F4006282820E
:101E900004E0828A4FF2FF731A4082827047828A7E
:101EA0004FF6FB731A408282828A0A43828270470D
:101EB00021B1828A42F00202828204E0828A4FF6D5
:101EC000FD731A408282704702460020B1F5007F00
:101ED00000D100BF13880B4201D0012000E0002098
:101EE000704701F40072B2F5007F00D100BFCA4311
:101EF0000280704770B502460024002300250020B0
:101F0000A1F510666A3E00D100BFC1F3421501F091
:101F10001F03012606FA03F3012D02D196893340EF
:101F200006E0022D02D1168A334001E0968A334042
:101F30000C12012606FA04F41688344013B10CB1D1
:101F4000012000E0002070BD10B500220023A1F5A3
:101F500010646A3C00D100BF0A1201249440A3B26D
:101F6000DC43048010BD0000003801400044004004
:101F700000480040004C0040005000404FF0E0217D
:101F800048617047012808D14FF0E021096941F00C
:101F900001014FF0E02211610EE0811C08D14FF0E9
:101FA000E021096921F001014FF0E022116103E015
:101FB00000214FF0E0229161704740B14FF0E021E5
:101FC000096941F002014FF0E022116107E04FF092
:101FD000E021096921F002014FF0E0221161704710
:101FE0004FF0E0208069704710B5014600220023C1
:101FF0000020CB10022B03D14FF0E024226902E035
:102000004FF0E024E26901248C40144201D0012009
:1020100000E0002010BD0000064880470648004749
:10202000FEE7FEE7FEE7FEE7FEE7FEE7FEE7FEE788
:10203000FEE7FEE79D120008ED00000870B50024E1
:102040000BE0002506E0A9B2A0B24FF6E072FEF761
:1020500035FD6D1CA02DF6DB641C802CF1DB4FF4EC
:102060007840FEF712FD4FF4FA70FEF7E1F84EF6F5
:102070007D70FEF70AFD4FF4FA70FEF7D9F870BDD7
:102080007FB53CA207CA01AB07C300244EF67D70A2
:10209000FEF7FBFC3AA04EF67D734FF47842142114
:1020A00000901020FEF7A9FE4FF47A70FEF7C0F8FA
:1020B0004EF67D70FEF7E9FC00BF21E0032094FBA3
:1020C000F0F04001401D85B2032094FBF0F100FBCD
:1020D000114000EB80004FF6FF7101EAC00601A934
:1020E000601C085C4EF67D734FF4784229460090E0
:1020F0003046FEF747FF6420FEF79AF8601CC4B232
:102100000A2CDBDB7FBD08B54FF4784314221E2177
:102110000846FEF701FD1F20962364221821009037
:102120000A20FEF78FFD5823712244210F20FEF76D
:1021300023FE7823712264210F20FEF7DCFD4FF48B
:10214000FA60FEF775F8114A5A217820FEF7FEFF73
:1021500040F6B830FEF76CF8FFF792FF40F6B83063
:10216000FEF766F808BD10B5FFF768FFFFF7CBFF75
:1021700010BD000000010203040506070809000065
:102180004E756D20546573740000000016470008FA
:102190002DE9FE4F804681EA0300C00F0C460090F7
:1021A00021F0004123F00045B8EB0200A94105D21F
:1021B0004046214690461C460B46024623F000400E
:1021C000104304D14046214603B0BDE8F08F270DEF
:1021D000C7F30A00C3F30A510290401A0190402845
:1021E00066DAC3F3130040F4801B0098924620B1D6
:1021F0000023D2EB030A63EB0B0B01985946C0F1A5
:102200004002504600F083F906460D4650465946B6
:10221000019A00F09BF910EB08006141002487EA65
:10222000115284EAE7731A433BD0009A3AB3019AF9
:10223000012A4FEA075210DC001B61EB02014FF04C
:10224000004202EA0752CDE90042001C41F580112C
:1022500032462B4600F099F9B6E7001B61EB02010C
:10226000001C41F5801300185B412018A2F50017EF
:1022700047EB030140EAD570B6196D4111E06D08D6
:102280004FEA360645EAC0754FEA0752001B61EB7C
:102290000201001C41F5801149084FEA3000001985
:1022A000514132462B4603B0BDE8F04F00F060B913
:1022B0000098012240000023D0EB020263EBE073A0
:1022C000009821464FEAE074B8EB000061EB04018E
:1022D000E9E783F000435BE781F0004158E72DE92F
:1022E000FE4F81EA030404F0004421F00041009411
:1022F0004FF0000B23F0004350EA010402D052EAF1
:10230000030404D10020014603B0BDE8F08FC3F3FD
:102310000A54C1F30A552C44A4F2F3340194A0FBEF
:102320000254C1F3130141F48011C3F3130343F4C6
:10233000801301FB024400FB034E840A970A44EA1F
:10234000815447EA8357A4FB076802958D0A05FB71
:1023500007854FEA932C04FB0C542705029D4FEA96
:10236000065847EA1637B5EB08056EEB070C870EE3
:10237000920E47EA811742EA8312A7FB0201B6EBED
:102380000B0164EB00042B0D43EA0C335E1844EBA5
:102390001C50DA465146E7FB0201C5F313044FEA2D
:1023A0000B3343EA14534FEA0432019C43EA060319
:1023B000A4F10C040294009CCDE900B400F0E5F80F
:1023C000A2E72DE9F04D81EA030404F0004B21F06F
:1023D000004514464FF0000A23F0004150EA050280
:1023E00020D054EA01021DD0C5F30A570246C5F3B6
:1023F0001303C1F31300C1F30A5640F4801543F4EC
:102400008013A7EB0608101BD64608F2FD3873EBC5
:10241000050002D308F1010801E092185B41B8F110
:10242000000F03DA00200146BDE8F08D00204FF4D4
:102430008011064684460EE0171B73EB050705D393
:10244000121B63EB050306434CEA010C49084FEAF3
:10245000300092185B4150EA0107EDD152EA0300C7
:1024600012D082EA040083EA0501084303D1002266
:102470004FF0004308E0101BAB4102D201220023C1
:1024800002E06FF0010253101AEB06004CEB08510A
:1024900010EB0A0041EB0B01BDE8F04D00F068B80D
:1024A0000EB5C10F80EAE0700844CA07002140F26F
:1024B00033438DE80E000A460B4600F066F803B081
:1024C00000BD0EB540F2334102910021CDE900116B
:1024D0000A460B4600F059F803B000BDC1F30A529A
:1024E00010B5C1F3130140F2FF3341F480119A4259
:1024F00001DA002010BD40F233439A42A2F2334287
:1025000003DC524200F012F810BD904010BD202AAA
:1025100004DB203A00FA02F1002070479140C2F13A
:10252000200320FA03F3194390407047202A04DB6C
:10253000203A21FA02F00021704721FA02F3D0403C
:10254000C2F120029140084319467047202A06DB59
:10255000CB17203A41FA02F043EAE07306E041FA71
:1025600002F3D040C2F1200291400843194670475F
:1025700010B5002B08DA401C41F1000192185B41B4
:102580001A4301D120F0010010BD2DE9F04D924613
:102590009B4611B1B1FA81F202E0B0FA80F220322A
:1025A0009046FFF7B4FF04460F4640EA0A0041EAAE
:1025B0000B0153465A46084303D120463946BDE82D
:1025C000F08D114653EA010015D0C8F14002504683
:1025D000FFF7ACFF05460E46504659464246FFF708
:1025E00096FF084301D0012000E00020054346EAA1
:1025F000E0762C4337430A984FEA4453A0EB080097
:102600004FEAD4240A304FF0000244EA47544FEA1C
:10261000D72502D500200146D1E7010510196941EF
:10262000DDE9084500196941BDE8F04DA0E770B546
:1026300021F0004303430CD0C1F30A550024D5EB2D
:10264000040564EB0403D617AD1AB34102DB002086
:10265000014670BD201841EB025170BD30B5002914
:1026600004DB4FF00044404264EB0101002B04DB2B
:102670004FF00044524264EB0303994208BF90427A
:1026800030BD0000064C074D06E0E06840F0010355
:1026900094E8070098471034AC42F6D3FDF72AFDC2
:1026A000089C0008289C00082DE9F04D00231A46DC
:1026B0001B1A8A4103DB00200146BDE8F08DC1F3FF
:1026C0000A52C1F3130141F480154FF0000BD107FA
:1026D00002D100186D41521E0027044640F2FF113E
:1026E000384601EB620A3E468046024600204FF41F
:1026F0008011FFF71BFFC2197141BB1846EB0100A7
:10270000B4EB030C75EB000C04D3E41A65EB000585
:1027100017460E46241908F101006D418046342801
:10272000E3DDF91946EB0600091BA84103D24FF07F
:10273000FF32134601E0002213461BEB070046EB75
:102740000A51BDE8F04DFFF713BF0000014A0249EE
:1027500000F08CB81105000830000020490050EA54
:10276000C12018BF04204A0D18BF40F0010040F2FC
:10277000FF72B2EB515F08BF40F00200012808BFB2
:10278000052070472DE9F0414F1E00EBC7010446BC
:10279000D1E9000115461E4637F006020DD02A4643
:1027A0003346FFF79CFD7F1E04EBC703D3E90023EC
:1027B000FFF7EEFC37F00602F1D1022F25D0042FEF
:1027C00013D0062F18BFBDE8F0812A463346FFF725
:1027D00086FDD4E90A23FFF7DBFC2A463346FFF7E0
:1027E0007EFDD4E90823FFF7D3FC2A463346FFF7E2
:1027F00076FDD4E90623FFF7CBFC2A463346FFF7E4
:102800006EFDD4E90423FFF7C3FC2A463346FFF7E5
:1028100066FDD4E90223FFF7BBFC2A463346FFF7E7
:102820005EFDD4E90023BDE8F041FFF7B1BC000034
:10283000024A00201107FFF7FABE000001FDFFFF6A
:1028400002E008C8121F08C1002AFAD17047704779
:10285000002001E001C1121F002AFBD170470000D7
:102860000149086070470000340000202DE9F04164
:1028700016460F460446002503E03946B0476D1C56
:10288000641C20780028F8D12846BDE8F0810000BB
:102890002DE9F04D16460F460546020094B01C4641
:1028A00021F0004123F0004014BF4FF0010C4FF025
:1028B000000C0CEB470CFE4B0CEB03084FEA630CCF
:1028C000E0452DD35FEA060818BF4FF0010808EB7A
:1028D00044089844F74B984522D3F74B50EA060C2E
:1028E00002D09F4205D14AB914B000201946BDE874
:1028F000F08D002A08BF4FF0000C01D04FF0010C02
:102900000CEB470313F5001F0AD8002E14BF4FF03D
:10291000010C4FF0000C0CEB440313F5001F08D919
:1029200014B03246234628463946BDE8F04DFFF73D
:102930002FBCDFF888B34FF0000A002FB8BF58450E
:1029400023DADF4B9842A8BF4FF0020A1DDADA4BB8
:1029500083421ADCDB4B03EB2053142B08DDC3F15D
:10296000340C26FA0CF303FA0CFCB4450DD108E044
:102970005EB9C3F1140C20FA0CF303FA0CFC844585
:1029800003D103F00103C3F1020A51EA020321D18A
:10299000002C1FDA002F18BFBAF1020F02D0BAF1D3
:1029A000010F0BD00220FFF75BFF14B00022BDE83F
:1029B000F04D13461046C049FFF703BD0220FFF754
:1029C0004FFF14B02A463B46BDE8F04D0020BA49FF
:1029D000FFF7F7BC33006DD1584525D107F1804092
:1029E00010F5801001BF002A0020B34914B008BFC1
:1029F000BDE8F08DB048884207DC002CA1BF184626
:102A0000214614B0BDE8F08D07E0002CBFBF18468A
:102A100084F0004114B0BDE8F08DAB497944D1E9B0
:102A2000000114B0BDE8F08DDFF88CC2604526D1FE
:102A3000002C1FDA19B1594513D1DAB90AE0002A7E
:102A400040F0DA829D4A394614B0002062F31E013C
:102A5000BDE8F08D0020394614B060F31E01BDE8DA
:102A6000F08D07DA14B03B46BDE8F04D002061461A
:102A7000FFF7A7BC14B010463946BDE8F08D5945A4
:102A800018DAB4F1804F0DD0A4F10053B3F1FF5325
:102A900010D13B1E0EDB14B01046BDE8F04D1946B8
:102AA00000F0E6BB3B4614B01046BDE8F04D1946B9
:102AB000FFF715BC27F00043A2BBE1B1594538D15F
:102AC000002F06DD002CA1BF0020594614B0BDE840
:102AD000F08D002F01DD002C1FDB002F16DA002CFB
:102AE00014DBBAF1010F4FF0000014BF73497749AE
:102AF00014B0BDE8F08DBAF1020F18BF002F0CD052
:102B0000BAF1010F09D1002F07DA0CE0002FB8BF8E
:102B1000002C0EDABAF1010F05D0002014B00146E6
:102B2000BDE8F08D05E014B000204FF00041BDE895
:102B3000F08D4FF0010C0CEBE7720D9252EA0A0295
:102B40000BD0634A90427DDD624B634A984216DDAA
:102B50008A420EDB002C1CDB2CE00120FFF780FEFC
:102B600014B00022BDE8F04D134610461146FFF7A1
:102B700028BC5148884202DC002C0ADC1AE0914251
:102B800002DA002C16DA04E04B4B99421EDD002CD1
:102B900010DD0220FFF764FE40F2013200204FF00A
:102BA000E041FFF744FD454A14B061F31E021146AF
:102BB000BDE8F08D0220FFF753FEFFF739FE3E4AD5
:102BC00014B061F31E021146BDE8F08D00222846C4
:102BD0003946FFF77EFB054688466FF00102FFF796
:102BE00026FD4FF055323D4BFFF776FB2A46434614
:102BF000FFF775FB00223A4BFFF76EFB07468B464B
:102C00002A46434610461946FFF769FB3A465B469B
:102C1000FFF765FB09910C904FF0C042314B2846FD
:102C20004146FFF75CFB07468B462F4A2D4B09991F
:102C30000C98FFF754FBCDE901102C4A2C4B284689
:102C4000414600E019E0FFF74AFBDDE90132FFF7FA
:102C500040FB3A465B4605910890FFF799FA00253C
:102C600088463A465B462846FFF733FB059B089AA1
:102C7000FFF732FB024600F076B90020B1F5801F65
:102C800007DA352228461946FFF7D1FC05466FF0D2
:102C9000340000EB2150A0F2FF300190C1F313008B
:102CA00040F07F6141F0405102911249884223E097
:102CB000FFFF1F00FFFF0F000000F03F0000F07F4C
:102CC0000000404301FCFFFFE07100000000F0FF46
:102CD0000000E0410000F043FFFFEF3F5555D53FB6
:102CE0000000E03F4715F73FFE822B6544DF5DF8AB
:102CF0000BAE543E8E980300D8BF4FF0000B0EDD94
:102D0000FE498142C8BF4FF0010B08DC01984FF02B
:102D1000000B401C01900298A0F580100290F8482A
:102D20000299784400EBCB000B911090D0E900237E
:102D30002846FFF7CEFA009010980791D0E90023BB
:102D400028460B99FFF724FA02460B460020ED496E
:102D5000FFF737FB05910B4602460890079900984C
:102D6000FFF7BDFA0690E8488846002778440299A4
:102D700000680E904FF0005040EA610000EB8B407D
:102D800000F5002110980291D0E900230E98FFF77A
:102D9000A0FA2A460B9BFFF79FFA3A464346FFF7F5
:102DA0009EFA05460B9138464146029B0E9AFFF764
:102DB00096FA079B009AFFF78FFA2A460B9BFFF7BC
:102DC00088FA059B089AFFF78AFA0B911090069AE9
:102DD000434610461946FFF782FA05460246CB489D
:102DE0000B46009106217844FFF7CCFC009B2A4655
:102DF0000291089010461946FFF771FA029B089A53
:102E0000FFF76DFA05460591434638461946069A7E
:102E1000FFF7BEF90B9B109AFFF761FA2A46059B54
:102E2000FFF7B6F93A464346059108901046194611
:102E3000FFF755FA0022B64B00910C90FFF7A8F966
:102E4000059B089AFFF7A4F90D463A46B04B384661
:102E5000FFF73FFA009B0C9AFFF73BFA059B089A95
:102E6000FFF73AFA11913A460C902B46104641462C
:102E7000FFF735FA079100904346069A11990C988E
:102E8000FFF72DFA804603912B463A460B9910988E
:102E9000FFF725FA4246039BFFF77AF90591804632
:102EA0000B46024607990098FFF772F900200F467B
:102EB0000546079B009AFFF70CFA4246059BFFF771
:102EC0000BFA804609914FF06042924B28463946F2
:102ED000FFF705FA009102908F4A8E4B4046099900
:102EE000FFF7FDF9804603918C4A8D4B2846394601
:102EF000FFF7F5F94246039BFFF74AF9894A7A44FE
:102F000002EBCB03D3E90023FFF742F906900391CC
:102F10000198FFF7C5FA0746DDE902030591069A15
:102F20000099FFF735F9804A7A4402EBCB0BDBE9D5
:102F30000023FFF72DF93A46059BFFF729F90025F5
:102F400088463A462846059BFFF7C3F9DBE900238C
:102F5000FFF7BFF9009B029AFFF7BBF9039B069AA4
:102F6000FFF7BAF90246002006900D98654FAAF1C6
:102F70000103184301D16D4F069000200B460090CD
:102F800030462146FFF7ABF982468B462346304652
:102F90001946009AFFF79DF92A464346FFF79FF925
:102FA00052465B46FFF7F4F806468A462A464346F1
:102FB00021460098FFF793F904460D4632465346E2
:102FC000FFF7E6F85A4A8B46914226DBABEB020349
:102FD00053EA000210D122462B46FFF77AF98046C9
:102FE0000591544A544B30465146FFF7D1F84246BA
:102FF000059BFFF733FB30D20220FFF731FC40F294
:10300000013200204FF0E041FFF711FB0A4639463C
:1030100014B062F31E01BDE8F08D484B2BF0004266
:103020009A421AD3464A0BEB020353EA000208D134
:1030300022462B46FFF74DF932465346FFF70EFB6B
:103040000BD80220FFF70CFCFFF7F2FB0A463946CB
:1030500014B062F31E01BDE8F08D2BF00040394939
:10306000394A01EB20514FF00008824223DA481C14
:103070004FF4801121FA00F05844C0F30A51334A4A
:10308000A1F2FF317A44324B1268CB4020EA0303AD
:10309000C0F3130040F4801CC1F114002CFA00F8B6
:1030A000BBF1000FB8BFC8F1000820462946FFF762
:1030B00010F904460D4622462B4630465146FFF78E
:1030C00067F84FF0000B5A46224B58460591FFF720
:1030D00006F900900791204A204B58460599FFF7C2
:1030E000FEF80491029022462B4658460599FFF7B8
:1030F000F0F832465346FFF7EFF831E07AB60B00AE
:10310000526E00000000F03F906E0000BE6D0000A7
:103110000000084009C7EE3FFD033ADCF5015B14EF
:10312000E02F3EBE966C00005C6C00000000F0BF1B
:1031300000009040FE822B654715973C00CC9040E4
:1031400000346F3F01FCFFFF0000E03F786B0000A0
:10315000FFFF0F00432EE63F396CA80C615C20BED8
:103160003F4A404BFFF7BBF8049B029AFFF710F869
:1031700006468A46079B009AFFF70AF804460D4662
:10318000079B009AFFF7A5F832465346FFF7A4F8CD
:10319000064622462B46099110461946FFF79FF82E
:1031A0008346024630488A460B4605217844FFF79D
:1031B000E9FA5A465346FFF792F822462B46FFF7A4
:1031C0008BF882468B46324620462946099BFFF7FC
:1031D00086F83246099BFEF7DBFF05910890002236
:1031E0004FF0804350465946FFF773F8064600916A
:1031F00052465B4620462946FFF771F83246009B4F
:10320000FFF7DFF8059B089AFFF763F822462B4685
:10321000FFF75FF80022154BFFF75EF80D460446F6
:1032200001EB08510815002810DC424620462946CB
:10323000FFF7FDF9FFF792FA042808BFFFF7F8FA45
:10324000424620462946FFF7F2F9044606980B4607
:1032500014B022463946BDE8F04DFFF740B80000F3
:10326000EF39FAFE422EE63F286A00000000F03FE8
:103270002DE9F04106460F46FFF716FA04000D4609
:1032800018BF0120284320F00040C0F17F6000F10A
:10329000E040C00F0ED0301C18BF0120384320F092
:1032A0000040C0F17F6000F1E040C00F04BF01208A
:1032B000FFF7D6FA20462946BDE8F081000000005D
:1032C00000000000000000000000000000101010CE
:1032D00010101010101000001010000000006C6C96
:1032E0002424000000000100000000000024242429
:1032F00024FE48484848FC909090900000103C54B0
:103300009290503814121292547810000000225CEF
:1033100094A8481010242A52548800000000304815
:103320004850206E54948C888A740000000030301D
:103330001010000000000000000000000004081051
:1033400010202020202020101008040000804020A1
:1033500020101010101010202040800000000000ED
:103360001054381038541000000000000000001005
:10337000101010FE101010100000000000000000DF
:1033800000000000000000001010200000000000FD
:10339000000000FE0000000000000000000000002F
:1033A00000000000000000001010000000000404F5
:1033B00008081010202040408080000000003844A1
:1033C00082828282828282824438000000001070F1
:1033D0001010101010101010107C00000000384465
:1033E000828204081020408284FC000000003844DF
:1033F0008202043804020282443800000000040CF7
:10340000141424244444FE04040E00000000FC8034
:103410008080B8C4820202828478000000003C42AE
:103420008280B8C4828282824438000000007E42DA
:10343000820404080808101010100000000038442E
:10344000828244384482828244380000000038443A
:1034500082828282463A02824438000000000000E4
:10346000101000000000101000000000000000001C
:1034700010100000000000101020000000000000EC
:1034800006186080601806000000000000000000C0
:103490000000FE0000FE0000000000000000000030
:1034A000C0300C020C30C000000000000038448224
:1034B00082020408101010001010000000003844B0
:1034C000829AAAAAAAAAAA9680423C0000001010DA
:1034D0001028282844447C4444EE00000000FC42AC
:1034E0004242427C4242424242FC000000003C44D4
:1034F0008280808080808282443800000000F8440E
:10350000424242424242424244F800000000FC442F
:103510004240447C4440404244FC00000000FC44E3
:103520004240447C4440404040F000000000344CA5
:10353000828080808E8484844C3400000000EE44BD
:103540004444447C4444444444EE000000007C1065
:103550001010101010101010107C000000003E0819
:103560000808080808080888887000000000EE4471
:10357000484850605048484444EE00000000E04095
:10358000404040404040404244FC00000000C644EF
:103590006C6C6C545454444444EE00000000CE441F
:1035A00064646454544C4C4C44E4000000003844BF
:1035B0008282828282828282443800000000F84443
:1035C000424242447840404040E00000000038441D
:1035D00082828282828282BA443C02000000F048E9
:1035E000444444487048444444E6000000003C44DD
:1035F000828040300C0202824478000000007C543B
:103600009210101010101010103800000000EE443E
:103610004444444444444444443800000000EE44DC
:103620004444442828282810101000000000EE44CC
:103630005454545454542828282800000000EE44C0
:10364000442828101028284444EE00000000EE44CE
:1036500044282828101010101038000000007E4464
:10366000840808102020408284FC0000001C1010F8
:10367000101010101010101010101C000000EE445C
:103680005454FE5454542828282800000070101068
:10369000101010101010101010107000003048841E
:1036A000000000000000000000000000000000001A
:1036B00000000000000000000000FE0000402000AC
:1036C00000000000000000000000000000000000FA
:1036D00000007884047C84848C7600000000C04064
:1036E00040405864424242426458000000000000DA
:1036F00000003844808080804438000000000C04C2
:103700000404344C848484844C360000000000009F
:103710000000788484FC80808478000000001824F5
:103720002020F82020202020207000000000000031
:1037300000003A444478807C82827C000000C040D3
:10374000404058644444444444EE000000001010DB
:103750000000301010101010103800000000101081
:103760000000301010101010109060000000C040D9
:1037700040405C485060504844EE0000000030106B
:10378000101010111010101010390000000000006F
:103790000000ACD29292929292D6000000000000FB
:1037A000000058E44444444444EE0000000000009B
:1037B0000000384482828282443800000000000009
:1037C0000000D864424242645840E000000000001B
:1037D0000000364C8484844C34040E000000000049
:1037E00000006C302020202020700000000000002D
:1037F000000078888460188444780000000000206D
:103800002020F820202020202418000000000000A4
:103810000000C64242424242463A00000000000018
:103820000000EE444428282810100000000000008A
:103830000000EE44445454282828000000000000F2
:103840000000EE442810102844EE000000000000A4
:103850000000EE444428281010A0C0000000000022
:1038600000007E448810204284FC0000000C1010F0
:10387000101010601010101010100C00001010101C
:1038800010101010101010101010100000C0202088
:1038900020202018202020202020C0000000000030
:1038A000000000728C00000000000000000000001A
:1038B00000001FE000003FF000003FF000001FE0AC
:1038C000000180060003C00F0003C00F0003C00FFB
:1038D0000003C00F0003C00F0003C00F0003C00FA0
:1038E0000003C00F00030003000000000000000000
:1038F00000000000000300030003C00F0003C00F1E
:103900000003C00F0003C00F0003C00F0003C00F6F
:103910000003C00F0003C00F0001800600001FE07D
:1039200000003FF000003FF000001FE0000000003A
:103930000000000000000080000001800000038003
:10394000000007800000078000000780000007805B
:10395000000007800000078000000780000007804B
:10396000000007800000018000000000000000004F
:1039700000000000000001800000078000000780B8
:10398000000007800000078000000780000007801B
:10399000000007800000078000000780000003800F
:1039A0000000018000000080000000000000000016
:1039B00000001FE000003FF00000FFF00001FFE00A
:1039C000000000060000000F0000000F0000000FC4
:1039D0000000000F0000000F0000000F0000000FAB
:1039E0000000000F00001FE300007FF800007FF8D8
:1039F00000001FE0000300000003C0000003C0003F
:103A00000003C0000003C0000003C0000003C000AA
:103A10000003C0000003C0000001800000001FF090
:103A200000003FF800003FFC00001FFE0000000007
:103A30000003FF800001FFC00000FFC000007F8086
:103A4000000000180000003C0000003C0000003CAA
:103A50000000003C0000003C0000003C0000003C76
:103A60000000003C00007F8C0001FFE00001FFF03F
:103A700000007F800000000C0000003C0000003CC3
:103A80000000003C0000003C0000003C0000003C46
:103A90000000003C0000003C0000001800007F8097
:103AA0000000FFC00001FFC00003FF800000000015
:103AB0000000000000020001000300030003800773
:103AC0000003C00F0003C00F0003C00F0003C00FAE
:103AD0000003C00F0003C00F0003C00F0003C00F9E
:103AE0000003C00F00031FE300007FF800007FFC0D
:103AF00000001FE0000000030000000F0000000FA6
:103B00000000000F0000000F0000000F0000000F79
:103B10000000000F0000000F0000000F0000000771
:103B20000000000300000001000000000000000091
:103B300000001FFC00003FF800003FF000001FE005
:103B4000000180000003C0000003C0000003C000AB
:103B50000003C0000003C0000003C0000003C00059
:103B60000003C00000031FE000007FF800007FF8A2
:103B700000001FE0000000030000000F0000000F25
:103B80000000000F0000000F0000000F0000000FF9
:103B90000000000F0000000F0000000600003FE0E2
:103BA00000007FF00000FFF00001FFE000000000D7
:103BB00000001FFC00003FF800003FF000001FE085
:103BC000000180000003C0000003C0000003C0002B
:103BD0000003C0000003C0000003C0000003C000D9
:103BE0000003C00000031FE000007FF800007FFC1E
:103BF00000001FE0000300030003C00F0003C00F1C
:103C00000003C00F0003C00F0003C00F0003C00F6C
:103C10000003C00F0003C00F0001800600001FE07A
:103C200000003FF000003FF000001FE00000000037
:103C30000007FFE00003FFC00001FF880000FF183D
:103C400000000038000000780000007800000078D4
:103C50000000007800000078000000780000007884
:103C600000000078000000180000000000000000C4
:103C7000000000000000001800000078000000783C
:103C80000000007800000078000000780000007854
:103C90000000007800000078000000780000003884
:103CA00000000018000000080000000000000000F4
:103CB00000001FE000003FF000003FF000001FE0A8
:103CC000000180060003C00F0003C00F0003C00FF7
:103CD0000003C00F0003C00F0003C00F0003C00F9C
:103CE0000003C00F00031FE300007FF800007FFC0B
:103CF00000001FE0000300030003C00F0003C00F1B
:103D00000003C00F0003C00F0003C00F0003C00F6B
:103D10000003C00F0003C00F0001800600001FE079
:103D200000003FF000003FF000001FE00000000036
:103D300000001FE000003FF000003FF000001FE027
:103D4000000180060003C00F0003C00F0003C00F76
:103D50000003C00F0003C00F0003C00F0003C00F1B
:103D60000003C00F00031FE300007FF800007FFC8A
:103D700000001FE0000000030000000F0000000F23
:103D80000000000F0000000F0000000F0000000FF7
:103D90000000000F0000000F0000000600001FE000
:103DA00000003FF000007FF00000FFE00000000096
:103DB0000000000000000000000000000000000003
:103DC00000000000000000000000000000000000F3
:103DD00000000000000000000000000000000000E3
:103DE00000000000000000000000000000000000D3
:103DF00000000000000000000000000000000000C3
:103E000000007800000078000000780000007800D2
:103E100000007800000078000000000000000000B2
:103E20000000000000000000000000000000000092
:103E30000000000000000000000000000000000082
:103E4000000000000000000000000000000007006B
:103E500000000F8000000F8000000F8000000700AE
:103E60000000000000000000000000000000000052
:103E700000000000000000000000070000000F80AC
:103E800000000F8000000F8000000700000000000D
:103E90000000000000000000000000000000000022
:103EA0000000000000000000000000000000000012
:103EB0000000000000000000000000000007C00635
:103EC000000FE0060000000C003018180030181831
:103ED000003018300030183000301860003008C052
:103EE0000007C0C0000FE080000000000000000FCD
:103EF000E0000607C000063018000C3018000C3037
:103F000018001830180030301800303018006000E9
:103F10000000C00FE000C007C0000000000000006B
:103F20000000000000000000000000000000000091
:103F30000000000000000000000000000000000081
:103F400000000000000700E0000887FC00088E0366
:103F50000008980180071800800030000000300041
:103F600000007000000060000000600000006000C1
:103F700000006000000060000000700000003000E1
:103F800000003000000038000000180100000C03A1
:103F9000000007FC000001F000000000000000002D
:103FA0000000000000000000000000000000000011
:103FB0000000000000000000000000000000000001
:103FC00000000000000000000000000000000000F1
:103FD00000000000000000000000000000000000E1
:103FE000000000000000000000003FF000007FF033
:103FF00000007FE00000FFC00000000000000000A3
:1040000000000000000000000000000000000000B0
:1040100000000000000000000000000000000000A0
:104020000000000000000000000000000000B5E7F4
:104030000200020002007FF0421042107FF04210A6
:1040400042107FF042000208020801F80000000060
:10405000D7D37FF000200040008001000200FFF86D
:104060000200020002000200020002000E00000036
:104070000000C8AB010001000280044008201010BD
:104080002FE8C106010001001FF00100010001003E
:104090007FFC0000B6AF004000407C40004001FCC7
:1040A0000044FE4420442044208448844484FD0489
:1040B000450402280410BCBC10201020102013FE60
:1040C000FC201020102015FC18843088D048105097
:1040D0001020105051882606CAF501000120011059
:1040E00001107FFC038005400540092011102108C4
:1040F00041040102010001000100D2BA00804040E9
:1041000027F8114001408278424816A81AD023505F
:10411000222042204250028800000000BEA73FE05B
:1041200020203FE020203FE00000FDF885088508C2
:10413000FDF885088508FDF8850800000000B2E25A
:1041400000084F8828880AA88AA84AA80AA82AA886
:104150002AA8422845088488888810380000000072
:10416000CAD44050204820400FF80040E04027408B
:104170002240224022202A2833A82E1800080000BE
:104180000000B3CC00001BF0E210221023F0F80076
:10419000200033F068806080A3F02080208027F822
:1041A00000000000D0F2020001003FF820002FF0D4
:1041B0002020224021803FF82088209040804080AD
:1041C000838000000000D1D5200010F87E204440FC
:1041D00028F87E8848A850A864A848A872A88450E7
:1041E0001888610800000000C9AB100010003FE013
:1041F000404080807FF04210421042107FF040002B
:10420000400840083FF800000000CCEE20802FF866
:10421000208027F0F41027F0241027F0241027F036
:104220003410CFF80220041000000000B3E40400B2
:104230000200FFF80800104020207FF0089008805E
:104240000880088010882088C07800000000CEC454
:10425000040002000200FFF81040104008800880AF
:1042600005000200050008803060C0180000000052
:10427000D7D604000200FFF8800880083FC0008005
:1042800001000200FFF80200020002000E00000020
:104290000000CFD43FE0202020203FE0202020203D
:1042A0003FE008804890289028A008800880FFF808
:1042B00000000000CABE00003FE000000000000057
:1042C000FFF8020012401220221042088208020069
:1042D0000E0000000000CDBC7FF84008440847C82D
:1042E0004848548843084CC8733840884C084308F1
:1042F00040887FF800000000C6AC0080208020804D
:1043000020803FF02000200020003FC020402040BF
:1043100020404040804000000000B4A520403840CC
:10432000484091F07D50555055507D5055F05440C7
:104330007C40545057F88C0800000000C3FE222037
:10434000222027F8FA2027F0241027F03410E7F075
:1043500020802FF821402220EC1800000000CAE441
:1043600040804140F22044108BE8A000F78824A848
:1043700027A834A8E7A824A8248825B800000000AE
:10438000C8EB08000400040002000200050005005C
:104390000880088010401040202040108008000055
:1043A0000000C8AB02000200050008801040202079
:1043B000DFD8020002001FC0020002000200FFF866
:1043C00000000000B3CC00001BF0E210221023F02C
:1043D000F800200033F068806080A3F02080208007
:1043E00027F800000000BCBC208020802080F7F06F
:1043F0002080208027E03220E220214020802140C0
:104400002220EC1800000000CAF502000240022041
:104410000200FFF807000A800A80124022204210A2
:1044200082080200020000000000D6A7020002007D
:10443000FFF8020002007FE0102010400880050015
:104440000200050018C0E03800000000B3D620804C
:10445000208023F0F880208027F828203020E7F8FB
:104460002020222021202020E0E000000000D7A80A
:10447000020002007FF004000400FFF808001000B2
:104480003FE0002000401C8003000080000000008E
:10449000D7A201004080200017F00080808040807B
:1044A000008017F010802080208040804FF80000AE
:1044B0000000C5FA204024402440F44824502760DE
:1044C00024403440E4402440244025482648E43831
:1044D00000000000B7A202002220221044007FF852
:1044E000040008000FE0142024404280810006C030
:1044F000383800000000B3C900A0009000807FF8A9
:10450000408040907C90449044A044A0444858A8E7
:104510004118820800000000B9A601000100F9005E
:1045200023F0211021102110211021103910C21068
:1045300002100410086000000000D2C60000002035
:1045400000780CE47904516810307E6019981A3CA8
:104550002FE448E40838003000600000D1A10000DA
:104560000120012003FC62203420042003FC2400ED
:1045700021B021202220323E18000FE00000D4F1AB
:104580000000000010FC1304110C3DF8703E10D028
:1045900015907CF0503E18101BFE023000200000E9
:1045A000CFEE0000000003FE00607C4012FC11040E
:1045B0001106113611241F44794400C0009C018665
:1045C0000000C4BF000000000FE03C1820082004D9
:1045D0003E04600460047E046004200C20081FF088
:1045E00001800000B6CC0000080011FC103E3EF82F
:1045F0002D8C2904490409043E8C50FC10881EC8E7
:1046000011FC100E0000B0B400000040006012FE6B
:1046100013023A427F4410C41BFE3C987190113043
:1046200011A00078004C0000C8B70000004000F85E
:1046300078C41F8C313821EC2126413A7DE22722B3
:1046400025FA3D26012401040000B6A8000001005F
:1046500001705FFC700420042FF801001100113874
:1046600021C431003F0063E040380000B3A40000E3
:1046700000000818086008C00B001E00181C7FF01E
:104680001000118010E01838098E0F000000B0B43F
:1046900000000040006012FE13023A427F4410C442
:1046A0001BFE3C987190113011A00078004C000066
:1046B000B7B50000000007F80600240014F8078CC6
:1046C00004042408261825F0647C64C220801FC0DE
:1046D0000000BBD8000000001FF030182008278C15
:1046E0002C44284428442CC427842004300C1FF870
:1046F0000380000000000000000000000000000037
:1047000000000000000000000000000000000000A9
:104710000000000000009B85BC8DDD8DDD95FD95C2
:104720001D9E1D961D961D9E1D961D961D96FD9502
:104730001D961D961D961D961D961D961D9EFD9DF2
:104740003D96FD951D96FD95FD951D9E1D96FD952D
:10475000FD95FD95FD95CE5B1D96FB9D299449AD7C
:10476000E129C2193B9EFD95FD95FD951D961D966F
:10477000FD95FD951D96FD95FD951D96FD951D9E3E
:104780001D961D961D9E1D96FD9DFD9D1D961D9EB3
:104790001D961D9E1D9E1E9E3D9E3D9E1D9E3D9EE8
:1047A0001D9E3D9E3D9E3D9E3D9E1E9E3E9E3D9E6F
:1047B0003E9E3EA63E9E3E9E5E9E3EA63E9E3EA6E1
:1047C0003EA65D9E3DA65E9E5EA65EA65E9E5EA623
:1047D0005EA65EA65EA67EA67EA65EA65EA67EA659
:1047E0007FA67EA67EA67FA67EA67EA67FA67EA6A6
:1047F0007FA67FA67FA67FA67F9E7EA69FA69FA65A
:104800007FA65E9E5E96BC8DDC8DFD951D961D96E9
:104810001D963D9E1D9EFD951D9EFD9D1D9E1D96FA
:104820001D961D9E1D9E1D9E3D9E1D9E1D9E1D9E98
:104830001D9E3E9E1D9EFD95FD951D9EFD95FD9D1B
:10484000FD951D965295DDA53D9E55956B73A62150
:10485000C0216021C019432A1D96FD95FD95FD9547
:10486000FD95FD9DFD9DFD9D1D961D9E1D9E1D9E04
:104870001D9E1D9E1D9E1D9E1D9E1D9E1D9E1D9E60
:104880001D9E1D9E1D9E3D9E3E9E3D9E3D9E1D9ECF
:104890003D9E3EA63E9E3D9E3E9E3EA63D9E3D9E2C
:1048A0003E9E3DA63EA63EA65E9E5E9E5EA63D9EAA
:1048B0005E9E5EA65EA65EA65EA65EA65EA65EA6E0
:1048C0005EA65EA65EA65EA67EA65EA65EA67EA688
:1048D0007EA67EA67FA67EA67EA69EA67EA67FA696
:1048E0009FA69FA69FA67FA67FA69FA69FA69FA6E0
:1048F0009FA67FA65E9EDC95FD951D9E1D963D9E06
:104900001D961D961E9E1D961D9E1D9E1D9E1D9EE6
:104910001D9E1D9E3D9E1D9E1D9E1D961D9E1D9EA7
:104920001D9E1D961D9E1D9E1D9E1D9E1D9E1D9EB7
:104930001D9EFE9DFA955EAE6019FC9540310022E9
:10494000C4216019DD9DFC8D6E5BFE9D1D961D963C
:104950001D961D9EFD9D1D9E1D9EFD9D1D9E1D9EC9
:104960001D9E1D9E1D9E1D9E1D9E1D9E1D9E1D9E6F
:104970003D9E3D9E1D9E1D9E3D9E3D9E1D9E3D9EBF
:104980003D9E3D9E3E9E3E9E3DA63EA63EA65EA60A
:104990005EA65EA65E9E3DA65EA65EA63EA65E9E48
:1049A0005EA65EA65EA65EA65EA65EA67EA67EA6A7
:1049B0005EA65EA65EA67FA65EA67EA67EA67EA656
:1049C0007EA67EA67FA67FA67FAE7FA67FA67FA6B9
:1049D0009FAE7FAE9FAE9FAE9FA69FA69FA69FAEA7
:1049E0009FA67FA67FA6FD951D961D9E3D9E1D9EA2
:1049F0001D9E1D9E3D9E1D9E3D9E1D9E1D9E1D9E9F
:104A00001D9E3D9E1D9E1D9E1D9E1D9E1D9E1D9EAE
:104A10001D9E1D9E3D9E1D9E1D9E1D9E1D9E1D9E9E
:104A2000FD9DFC9D77DF1D9E60198021C652424A84
:104A3000E229402AD89DFD9DFD9DFD9D1D9E1D9E48
:104A40001D9E1D9E1D9E1D9E1D961D9E1D9E3D9E76
:104A50003D9E1D9E1D9E1D9E1D9E3D9E1D9E3D9E1E
:104A60001D9E3D9E3D9E3D9E3D9E3D9E1EA63EA69C
:104A70003EA63EA63EA63EA63D9E3D9E3D9E3EA631
:104A80005EA63EA65EA65EA65E9E5E9E5EA65E9E3E
:104A90005EA65EA65EA65EA65EA67EA65EA65EA6D6
:104AA0005EA67EA67EA67EA65EA67EA67FAE7EA61D
:104AB0007EA67FAE7EA67EA67FAE7FAE9FA67EA69A
:104AC0009FAE9FA69FA69FAE9FA69FA69FAE9FAE9E
:104AD0009FA69FA69FA61D961D963D963E9E3D9E17
:104AE0003D9E3E9E3D9E3D9E1D9E1D9E3D9E1D9E4D
:104AF0003D9E3D9E3D9E1D9E1E9E3D9E3D9E1D9E3D
:104B00001D9E3E9E3D9E1D9E1D9E1D9E1D9E1D9E8C
:104B10001D9EFD95F6B5F69D1E9E1D96A729E642A3
:104B2000675B2232422A3B961D9E1D9E1D9E1D9E46
:104B30001D9E1D9E1D9E1D9E1D9E1D9E3D9E1D9E7D
:104B40003D9E1D9E1E9E3D9E1D9E1E9E3D9E3D9E0B
:104B50003E9E3DA63DA63DA63E9E3DA63EA63EA649
:104B60003DA63EA65E9E5EA63DA65DA65E9E5E9EA0
:104B70005EA65E9E5E9E5EA65EA65EA65E9E5EA62D
:104B80005EA65EA65EA67EA65EA65EA65EAE7EA6BD
:104B90007EA67EA65EA67FA67EA67EA67EA67EA614
:104BA0007EA67EA67EA67FAE9EAE9EAE7FAE7EAE7B
:104BB0009FAE9FAE9FAE9FA69FAE9FAEBFAEBFAE55
:104BC0009FA6BFAEBFAE3D9E3E9E3D9E1D9E3D9E9E
:104BD0003E9E3E9E3D9E3D9E1D9E1D9E3D9E3D9E3B
:104BE0003D9E3D9E1D9E1D9E1D9E1D9E1D9E1D9EAD
:104BF0001D9E1D9E1D9E1D9E3D9E1D9E1D9E1D9EBD
:104C00001D9615BE0E8DA23A1E9E3D9E695AA43A6F
:104C100042321C9E83192F741D961D9E3D9E1D9E23
:104C20003D9E3D9E3D9E1D9E3D9E3D9E1D9E3D9EEC
:104C30001D9E1D9E1D9E3D9E3E9E3E9E3EA63D9EF1
:104C40003D9E3DA63D9E3DA63EA65E9E3EA63EA640
:104C50003EA63EA65DA65EA65DA63EA65EA65EA696
:104C60005EA65EA65EA65EA65EA65EA65EA65EA624
:104C70005EA65EA65EA67EA65EA67EA67EAE7EA68C
:104C80005EA67EA67EA67EA67FAE7EA69EAE7EAEEB
:104C90009EAE9EAE7EAE7FAE9EAE9EAE9FAE9FAEF1
:104CA0009FAEBFAEBFAE9FAE9FAEBFAEBFAEBFAEFC
:104CB0009FA6BFAEBFAE3E9E3E9E3E9E3E9E3E9E89
:104CC0001D9E5E9E3E9E3D9E1D9E1D9E3D9E1D9E6A
:104CD0003D9E3D9E3E9E3D9E3D9E3D9E3D9E3E9EFA
:104CE0003D9E1EA61D9E3D9E1D9E1D9E3D9E1D9E83
:104CF0001D9E3D9675B6AC7C3DA6FDA55DBE2E8481
:104D0000202A1D96A121E321CE5B1DA61D9E1D9E7E
:104D10001D9E1D9E1D9E3D9E3D9E3D9E1D9E3D9E3B
:104D20003E9E3DA63D9E3D9E3D9E3EA63E9E3D9E98
:104D30003DA63EA63DA63DA65D9E3DA63E9E5EA628
:104D40005DA65EA63DA63DA63EA65EA63EA65E9ECE
:104D50005EA65EA65EA65E9E5EA65EAE7EA65EAE0B
:104D60005EA67EAE5EAE5EAE7EA67EAE9EAE7EA63B
:104D70009EA67EAE7EAE7FAE7EA69EA67EAE7EAEAA
:104D80009EAE9EAE7EAE9EAE9FA69EAE9FAE9FAEE8
:104D90009FAEBFAEBFAEBFAEBFAE9FAEBFAEBFAEEB
:104DA000BFAEBFAEBFAE5E9E3D9E1D9E3D9E3D9E74
:104DB0003D9E1DA65E9E3D9E3D9E3D9E3D9E3D9E12
:104DC0001D9E3EA63E9E3E9E3D9E1D9E3D9E3D9E40
:104DD0003D9E3D9E5E9E1DA63D9E3D9E1D9E3D9E12
:104DE0001DA6C042FD9517DF4E6C3CA61DA63D9E3C
:104DF00061321C9EAB5BA019FD9D06431D9E3D9E2E
:104E00001D9E3D9E3D9E1E9E3E9E3E9E1D9E3E9E26
:104E10003D9E3DA63EA63D9E5D9E3EA63EA63EA66E
:104E20003DA65EA65DA63DA63DA63D9E5EA65EA6EF
:104E30003EA65EA65DA65DA63EA65EA65DA65EA695
:104E40007EA65DA65EA65EA65EA65EA67EA65DA604
:104E50005EA65EA67EA67EA67EA67EAE9EAE7EAE3A
:104E60007EAE7EAE7FAE9EAE7EAE9FAE9EAE9EAE60
:104E70009EAE7EAE9FAE9FAE9EAEBFAE9FAEBFAEAD
:104E80009EAE9EAE9FAEBFAEBFAE9EAE9FAE9FAE7D
:104E9000BFAEBFAEBFAE5D9E5D9E3E9E3D9E3D9E43
:104EA0003EA61D9E5DA63EA63D9E3E9E3D9E3D9E0F
:104EB0003EA61DA63DA61D9E1EA63D9E1D9E3D9E78
:104EC0003D9E3D9E3DA65D9E3DA63DA63D9E3D9ED2
:104ED000F5ADC86B39AE5695E8421EA6F9AD3CAEAD
:104EE000222A3D9E4A4B8119DC9D2B5B5FAE5C9E66
:104EF0003D9E5D9E3DA63D9E3E9E3E9E5DA63DA680
:104F00003D9E3EA63DA63DA63DA65D9E3DA65EA657
:104F10003EA65EA63EA63EA63EA65DA67EA65DA6D3
:104F20005EA65EA65DA65EA65DA67EA65EA65DA644
:104F30007EA67EA65EAE7EA65EAE5EAE9EAE7EAE69
:104F40007EA67EAE7EA67EA67EA67EAE7EAE7EAE21
:104F50007EAE9EA69EAE7EAE9EAE9FAE9EAE9FAE37
:104F60009EAE9EAE9EAE9EAE9EAEBFB6BFAEBFAE76
:104F70009FAEBFAEBFAEBFAEBFAEBFAEBFAE9FAE09
:104F8000BFAEBFAEBFAE5E9E5EA65EA63D9E5E9EFF
:104F90005E9E5D9E3DA63DA65D9E3EA63DA63D9EB7
:104FA0003DA63D9E3D9E3D9E3D9E3DA63D9E3DA611
:104FB0003D9E3E9E3DA63DA63D9E5D9E3DA63D9EE0
:104FC000A663E65B81323E9E529DD89D15850B54AB
:104FD00061321B9E798DC021B59D3AAE39AE3EA699
:104FE0003DA63DA63D9E3D9E3DA63D9E3DA65EA6A0
:104FF0003D9E5DA65EA65DA63DA65DA65DA65DA6E0
:105000005DA65EA65EA65DA65EA65EA65DA65EA683
:105010005EA67EA65DA65EA65EA67EAE7EA67EA6E9
:105020005EA67EA65DA67EA67EAE7EA67EAE7EA691
:105030007EAE7EAE9EAE9EAE7EAE7EAE7EAE7EAED0
:105040009EAE9EAE7EAE9EAE9EAE9FAE9EAE7EAE3F
:105050009EAE9EAE9EAEBFAEBFAE9FB6BFAEBFAE63
:10506000BFAEBFB6BFB6BFAEBFAEBFAEBFB6BFAEC0
:10507000BFAEBFAEBFAE5EA65D9E5DA65EA65DA6E0
:105080003DA65EA63D9E3EA65DA65D9E5DA63D9E9E
:105090003D9E3D9E5DA63DA63D9E3DA63DA65DA6D0
:1050A0003DA63D9E3D9E5DA63D9E3DA65DA6978D7F
:1050B0003485A65B202A3EA65DA6E6425CB63EA6E7
:1050C000403A63423AAE012A84421DA6E7425E9E00
:1050D0003DA63DA63EA63EA63DA63DA65EA63EA694
:1050E0003DA65DA65DA65DA63EA65DA65DA65EA6E6
:1050F0007EA65DA65DA65EA65DA67EA67EA65DA634
:105100007EA67EA67EAE5EA67EA67EA67EA67EA697
:105110007EA67EAE7EA65EAE7EA67EA67EAE7EAE6F
:105120007EAE7EAE7EAE7EAE9EAE7EAE9EAE7EAEDF
:105130009FAE9EAE7EAE9EAE9EAE9FAE9EAE9EAE2D
:105140009EAE9EAE9FB6BFB6BFAEBFAEBFAEBFB641
:10515000BFB6BFAEBFB6BFAEBFB6BFB6BFAEBFB6BF
:10516000DFB6BFB6BFAE5DA65EA65D9E5EA65EA6BE
:105170005DA65DA65EA65D9E5EA65DA65DA65DA61D
:105180005DA65DA65DA65DA65DA65DA65DA63DA627
:105190003DA65DA65DA63DA65DA63DA65DA65DA657
:1051A0003D9E803A23433DA68432FBAD349559BEE3
:1051B00086423DA63D9EFC9D475B3E9E3AAE5FA665
:1051C0003DA65DA65EA65EA65DA65DA65EA65D9EEC
:1051D0005EA63DA65DA65EA65EA65DA65DA65EA6D3
:1051E0005EA65EA65EA67EA65EAE5DA67EA65EA658
:1051F0007EA65EAE7EAE7EAE7EA67EAE7EAE7EAE7F
:105200007EAE7EAE7EAE7EAE7EAE7EAE7EAE9EAE1E
:105210007EAE9EAE9EAE9EAE9EAE9EAE9EAE9EAE4E
:105220009EAE9EAE9EAE9FB69EAE9EAEBFB6BFB6C3
:105230009FB6BFB6BFB6BFB6BFB6BFB6BFB6BFB6E6
:10524000BFB6BFB6BFB6DFB6BFB6DFB6DFB6BFB656
:10525000DFB6DFB6DFB65EA65D9E5DA65DA65DA687
:105260005DA65DA65DA65DA65DA65DA65DA65DA626
:105270005EA65DA65DA65DA65DA65DA65DA65DA615
:105280005DA65DA65DA65DA65DA65DA65DA63DA626
:105290005DA67CAEC342C2211CA65DA63DA6729D42
:1052A0003DA65EA65EA64E438A535EA6DA955BAE29
:1052B0005DA65EA65EA63DA65DA65DA65DA65EA6F3
:1052C0003DA65EAE7EA65DA67EA65EA65EA65EAE90
:1052D0007EAE7EA67EA67EAE7EAE7EA65EAE7EAEA6
:1052E0007EAE7EAE7EAE7EAE7EAE7EAE7EAE7EAE5E
:1052F0007EAE7EAE9EAE7FAE7EAE7EAE7EAE7EAE2D
:105300007EAE9EAE9FAE9EAE9EAE9EAE7EAE9EAE7C
:105310009EAE9EAE9EAE9FB69FAE9EAEBEB6BFB6D2
:10532000BFB6BFB6BFB69FB6BEB6BFB6BFB6BFB6F6
:10533000DFB6BFB6BFB6BFB6DFB6BFB6DFB6BFB665
:10534000DFB6DFB6DFB65D9E5D9E5DA65DA65EA69E
:105350005EA63DA65EA65DA65DA65EA67EA65DA631
:105360005DA65DA65EA65DA65DA65DA65DA63DA644
:105370005DA65DA63DA65DA65DA65DA65DA65DA635
:105380005DA65DA6989589535EA63EA6AA2AE02151
:105390003DA65DA65DA6865B5CAE5DA65EAE4F6C6F
:1053A0005EA65DA65EA65EA65DA65EA65EA67EA6BF
:1053B0007EA67EA67EA65DA67EAE7EAE7EA67EAED6
:1053C0007EAE7EAE7EAE7EAE7EAE7EAE7EAE7EAE7D
:1053D0007EAE7EAE7EAE7EAE7EAE7EAE7EAE7EAE6D
:1053E0009EAE7EAE9EAE9EAE9EAE7EAE9EAE7EAEBD
:1053F0009EAE9EAE9EAE9EAE9EAE9EB69EAE9EAE45
:105400009EB69FB6BFB6BFB6BFB6BEB6BFB6BFB636
:10541000BFB6BFB6BFB6BFB6BFB6BFB6BFB6BFB6E4
:10542000DFB6DFB6BFB6BFB6DFB6BFB6BFB6DFB654
:10543000BFB6DFB6DFB65DA67EA65DA67DA65DA67D
:105440007DA65DA65DA65DA65EAE5EA67DA67DA6DA
:105450007DA65DA65EA65DA67EAE5DAE5DA65DA6E2
:105460005DA65DA65DA65EA65DA65DA65DA65EA622
:105470005DA67EAE5DA620327FAE5DA6A33A002279
:105480003CA65CA61D9EFBA55DAE5EA65FAE5DAEB6
:105490005EA65EA67EA65EAE5EA67EA65DA67EA685
:1054A0005DA67EAE5EAE7EAE7EAE7EAE7EAE7EAEE5
:1054B0007EAE7EAE7EAE7EAE7EAE7EAE7EAE7EAE8C
:1054C0009EAE9EAE7EAE7EAE7EAE9EAE9EAE9EAEDC
:1054D0007EAE7EAE7EAE7EAE7EAE7EAE9EB69EAE24
:1054E0009EAEBFAE9EAE9EAE9EB69EB69FB69EAE22
:1054F0009FB6BFB6BFB6BFB6BEB6BFB6BFB6BFB625
:10550000BFB6BFB6BFB6BFB6BFB6BFB6DFB6BFB6D3
:10551000DFB6DFB6DFB6DFB6DFB6DFB6DFB6DFB6E3
:10552000DFB6DFBEDFB65DA67EA65EA65DA67EA662
:105530005EAE7EAE5EA65DA65DA67EAE7DAE7DAEA7
:105540005DA65EA65EA65DA65DA65DA65DA65DA641
:105550005DA65DA65DA65DA65DA65DA67EAE5DA60A
:105560007EAE7DA67EAE5FAE7EA67DA6485B223275
:105570006E7C5DA67EA65EA67EAE7EAE5EA65DA6B7
:105580007EAE7EAE7EAE7EA65EAE7EAE7EAE7EAEE3
:105590007EAE7EAE7EAE7EAE7EAE7DAE7EAE7EAEAC
:1055A0007EAE7EAE9EAE7EAE7EAE7EAE9EAE7EAE5B
:1055B0007EAE9EAE9EB69EAE9EAE9EAE9EAE9EAEA3
:1055C0009EAE9EAE7EAE9EAE9EAE9FB69EB69EAE8A
:1055D0009FB69EAE9EAEBFAE9EAEBFB6BFB6BEB6C7
:1055E000BEB6BFB6BFB6BFB6BEB6BEB6BFB6BFB616
:1055F000DFB6BFB6BEB6BEB6DFB6BEB6DFB6DFB686
:10560000DFB6DFB6DFBEDFBEDFB6DFB6FFBEFFB69A
:10561000DFBEDFB6FFBE5EAE7EA67EA67EAE5DA618
:105620007EAE7DA67EAE5EAE7EA67EA67EAE5DAE74
:105630007EAE7EAE7DAE5DA67DA67EAE5DA67EA66E
:105640007EAE7EA67EA65DA67EAE7EAE7DAE7DAE35
:105650005DAE7DAE3DA67EAE7EAE7DA6675B2A5377
:105660007FA637A65DA67EAE7EAE7EAE5DAE5DA6A3
:105670007EAE7EAE7DAE7EAE7EAE7EAE7EAE7EAECB
:105680009EAE7EAE7EAE9EAE9EAE7EAE9EAE9EAE1A
:105690009EAE7EAE9EAE7EAE9EB67EAE9EAE7EAE22
:1056A0007EAE9EAE9EAE7EAE9EAEBEB69EAE9EB6AA
:1056B0009EAE9EAE9EAE9FB6BEAE9EAEBFB69FB62F
:1056C000BFB6BEB6BFB6BFB69FB6BFB6BEB6BFB654
:1056D0009EB6BFB6BFB6BFB6BEB6DFB6BFB6DFB604
:1056E000BEB6DFB6DFBEBFB6DFBEDFB6DFB6DFB643
:1056F000DFB6FFB6DFBEDFB6FFBEDFB6DFBEFFBE82
:10570000FFBEDFBEDFBE7EAE7EAE7EAE7EAE7EA6CE
:105710007EAE7DA67DA67DAE7DAE7EAE7EAE7EAE3D
:105720007DAE7DAE7EAE7EAE7EAE7EAE7EAE7EAE1B
:105730007EAE7EAE7EAE7DAE7EAE7EAE7EAE7EAE0A
:105740007EAE7DAE7DAE7EAE7EAE7EA6C5425EAE48
:10575000F14B5DB67CAE7EAE7EAE7EAE7EAE7EAEF4
:105760007EAE7EAE7EAE7DAE7EAE7EAE7EAE7EAEDA
:105770009EAE7EAE9EAE9EAE9EAE9EAE9EB69EB6D9
:105780009EB69EB69EB69EAE9EB69EB69EAE9EB689
:105790009EB6BEB69EB69EB69EAEBEB6BEB6BEB6F1
:1057A000BFB69EB6BEB6BEB69FB6BEB6BFB6BEB696
:1057B000BEB69FB6BFB6BFB6BFB6BEB6BFB6BFB663
:1057C000BEB6BFB6BFB6BFB6DFB6BEB6DFB6DFB6D3
:1057D000DFB6DFB6DFB6DFBEDFB6DFBEDFBEDFBE01
:1057E000FFBEDFBEDFBEDFBEFFBEDFBEFFBEFFBE51
:1057F000FFBEFFBEFFBE9EAE7EAE7EAE7EAE7EAE76
:105800009EAE7DAE7DAE7DAE7DAE7DAE7DAE7EAE1E
:105810007DAE7DAE7EAE9EAE7EAE7EAE7EAE7EAE0A
:105820007EAE7DAE7EAE7EAE7EAE9EAE9EAE7EAED9
:105830007EAE9EAE9EAE7EAE7EAE8D53E5421C9E8B
:10584000C021ED9423437EAE7EAE9EAE9EAE7EAE74
:105850007EAE7EAE7EAE9EAE9EAE9EAE9EAE7EAE68
:105860009EAE9EAE9EAE9EB69EAE9EB69EB69EB6B8
:105870009EB69EB6BEB69EB69EB6BEB6BEB69EAE30
:105880009EB69EB6BEB6BEB6BEB6BEB69EB6BEB6D8
:105890009EB6BEB6BEB6BEB6BEB6BEB6BEB6BFB687
:1058A000BFB6BEB6BFB6BEB6BEB6DFB6BEB6BFB634
:1058B000DFB6BFB6BFB6BFBEBEB6DFBEDFBEDFBEA1
:1058C000DEBEDFBEDFBEDFBEDFBEFFBEFFBEDFBEB1
:1058D000FFBEFFBEFFBEFFBEFFBEFFBEFFBEFFBEE0
:1058E000FFBEFFBEFFBE9EAE7EAE7EAE7EAE7DAE86
:1058F0009EAE9EAE9EAE7DAE7DAE9DAE9DAE7DAEAD
:105900009EAE9EAE7EAE9DAE9DB69EAE9EAE9EAE51
:105910009EAE9DAE7EAE7DAE7DAE9EAE9EAE7EAEAA
:105920007DAE7EAE7EAE7EAE7EAEE2215DAE9CAE44
:10593000603A7DB6E9329EAE9EB67EAE9EAE9EAE1B
:105940009EAE7EAE9EB69EAE9EAE9EB6BEAE9EB6DF
:105950009EB69EAE9EB69EB69EB69EAEBEB69EB697
:10596000BEB6BEB69EB6BEB6BEB6BEB6BEB6BEB6B7
:10597000BEB6BEB6BEB6BEB6BEB6BEB6BEB6BEB687
:10598000BEB6BEB6BFB6BFB6BEB6BEB6BEB6BEB675
:10599000BEB6BFB6BFB6BFB6BFB6BEB6BFB6DFB641
:1059A000DFBEBFB6DFB6DEBEDFB6DFBEDEBEDEBE4A
:1059B000DEBEFFBEFFBEFFBEFFBEFFBEFFBEFFBE20
:1059C000FFBEFFBEFFBEFFBE1FBFFFBEFFBE1FBFAD
:1059D0001FBFFFBEFFBE9EAE9EAE9EAE9DAE9EAEF4
:1059E0009DAE9DAE9EB69EAE9DAE9EB69EAE9DB643
:1059F0009DAE9DAE7DB69DAE9DAE9DB6BEB69EB62D
:105A00009EAE9DAE9EB69EAE9EAE9DB69DAE9EB621
:105A10009EAE9EB69DAE7DB66932AD6B9DB6367DAF
:105A200060119EBE8D5B9DB67EB69EAE9EAE9EAE56
:105A30009EAE9EAE9EAE9EAE9EAEBEB6BEB6BEB68E
:105A40009EB69EB69EB6BEB6BEB69EB6BEB6BEB636
:105A5000BEB6BEB6BEB6BEB6BEB6BEB6BEB6BEB6A6
:105A6000BEB6BEB6BEB6BEB6BEB6BEB6BEB6BEB696
:105A7000BEB6BEB6DEB6BFB6BEB6BFB6DEB6DFB623
:105A8000BFB6BFBEBFB6DEB6DFBEBFB6DFBEDFBECF
:105A9000DEB6DFBEDFBEDEBEDEBEDEBEFFBEFFBEEA
:105AA000DFBEFFBEFFBEFFBEFFBEFFBEFFBEFFC626
:105AB000FFBEFFBE1FBFFFBE1FBF1FBF1FBF1FBF59
:105AC000FFBE1FBFFFBEBEB6BEB69DB69EB69DB69C
:105AD0009DAE9DB6BDAE9DB6BDB67DB69DB69DB61E
